:020000040800F2
:1000000020080020AD0100080902000809020008CC
:1000100009020008090200080902000800000000A7
:1000200000000000000000000000000009020008BD
:100030000902000800000000090200080902000887
:100040000902000809020008090200080902000864
:100050000902000809020008090200080902000854
:100060000902000809020008090200080902000844
:100070000902000809020008090200080902000834
:100080000902000809020008090200080902000824
:100090000902000809020008090200080902000814
:1000A0000902000809020008090200080902000804
:1000B00009020008090200080902000809020008F4
:1000C00009020008090200080902000809020008E4
:1000D000090200085D090008090200080902000879
:1000E00009020008090200080902000809020008C4
:1000F00009020008090200080902000809020008B4
:1001000009020008090200080902000809020008A3
:100110000902000809020008090200087D0300081E
:100120000902000809020008090200080902000883
:100130000902000809020008090200080902000873
:100140000902000809020008090200080902000863
:100150000902000809020008090200080902000853
:100160000902000809020008090200080902000843
:100170000902000809020008090200080902000833
:10018000090200080902000880B483B000AF78605B
:100190000B467B807B88C3F308039AB27B689A8006
:1001A0000C37BD465DF8047B704700BF80B582B058
:1001B00000AF104B7B60104B3B6007E03B681A1DA3
:1001C0003A607A68111D796012681A603A680B4BC0
:1001D0009A42F3D30A480B494FF000028842B8BF55
:1001E00040F8042BFFF6FAAF00F082F90837BD465D
:1001F00080BD00BF90090008000000200000002022
:10020000000000201C00002080B400AFFEE700BF0B
:1002100080B483B000AF4D4B4C4A126842F4700278
:100220001A6000237B6002E07B6801337B607B689F
:10023000B3F5801FF8D3464B454A926842F4144206
:100240009A60434B424A126842F480321A6000BFFF
:100250003F4B1B6803F40033002BF9D03C4B3D4A65
:100260005A603B4B3A4A126842F080721A6000BFF3
:10027000374B1B6803F00073002BF9D0364B40F26C
:1002800005621A60324B324A926842F002029A606A
:1002900000BF2F4B9B6803F00F030A2BF9D12C4BA7
:1002A0002B4A126B42F01F021A632C4B2C4A1A6025
:1002B0002A4B4FF0FF329A602A4B2B4A1A62294B85
:1002C000284A126842F428421A60214B204A526C94
:1002D00042F480525A64254B40221A60234B4FF05F
:1002E000FF329A60214B08221A83214B40F67F325D
:1002F0001A801F4B00229A80154B154A126C42F04F
:1003000020021A641B4B80221A801A4B40F247329B
:100310001A85184B0122DA62164B01229A81164B7C
:100320004FF400025A60134B124A128892B242F004
:10033000010292B21A800B4B0A4A126822F00302A1
:100340001A600C37BD465DF8047B704788ED00E00D
:1003500000380240042A4007003C0240000C0240E2
:1003600000005555000002400000505500100240AA
:10037000003001400014004000E100E080B483B090
:1003800000AF224B00221A824FF47F43FB80204BA8
:100390001B780133DAB21E4B1A701D4B1B78002BF1
:1003A0000ED10023BB8008E0BB88BA881949895C5C
:1003B000194AD154BB880133BB80BB88072BF3D9C2
:1003C0004FF400437B800023BB8013E0BB88124ABC
:1003D000D25C0F4B1B789A4206D87B88DB439AB2DB
:1003E000FB8813409BB2FB807B885B087B80BB88CB
:1003F0000133BB80BB88072BE8D9FA88074B1A600A
:100400000C37BD465DF8047B704700BF0014004008
:1004100008000020140000200C0000200400002030
:1004200080B485B000AF0346FB80174B08225A8387
:10043000164B1B899BB2FB73144BFA889A8100BF41
:10044000124B1B899BB203F00103002BF8D000BFB5
:100450000E4B1B899BB203F08003002BF8D10B4B92
:100460009B899BB2FB7300BF084B1B899BB2022B7D
:10047000FAD1054B08221A83FB7B5BB2184614376E
:10048000BD465DF8047B704700100240003001401B
:1004900080B582B000AF02460B46FA71BB71FB79A2
:1004A00003F03F031B029AB2BB799BB213439BB28A
:1004B0001BB21846FFF7B4FF034618460837BD467F
:1004C00080BD00BF80B582B000AF0346FB71FB79F1
:1004D00003F03F0343F080031B029BB21BB218469C
:1004E000FFF79EFF034618460837BD4680BD00BF94
:1004F00080B58CB000AFFFF78BFE00F073F9AD480C
:1005000000F0CCF90F20FFF7DDFF03463B2B40F056
:100510004B8120204721FFF7BBFF00BF2720FFF7BB
:10052000D1FF0346DBB203F00103002BF6D02920F4
:10053000FFF7C8FF034687F8293000BF2720FFF7E1
:10054000C1FF0346DBB203F00203002BF6D02B20E1
:10055000FFF7B8FF034687F828302720FFF7B2FFE0
:10056000034687F8273097F8273003F00103002B64
:1005700049D03B7D5BB27B852920FFF7A3FF034673
:10058000DAB297F82930D31ADBB287F826300F2376
:10059000FB6219E0FB6A013B07F13002134413F8D8
:1005A0001C2C07F11401FB6A0B441A7007F11402AA
:1005B000FB6A13441B785BB29AB27B8D13449BB2E7
:1005C0007B85FB6A013BFB62FB6A002BE2DC97F850
:1005D00026303B75B7F92A309B107B85B7F92A3056
:1005E000002B07DB7B8DDAB2734B1A70724B002243
:1005F0009A7008E0704B00221A707B8DDBB25B4270
:10060000DAB26D4B9A7097F8273003F00203002B93
:1006100047D03B795BB27B852B20FFF753FF034626
:10062000DAB297F82830D31ADBB287F826300F23D6
:10063000FB6217E0FB6A013B07F13002134413F839
:100640002C2C391DFB6A0B441A703A1DFB6A1344AB
:100650001B785BB29AB27B8D13449BB27B85FB6A9D
:10066000013BFB62FB6A002BE4DC97F826303B7110
:10067000B7F92A309B107B85B7F92A30002B07DBAE
:100680007B8DDAB24C4B5A704B4B0022DA7008E08B
:10069000494B00225A707B8DDBB25B42DAB2464B8B
:1006A000DA70464B1B6803F48043002B02D0444BA6
:1006B00001221A70414B1B6803F48053002B02D0B7
:1006C0003F4B00221A703D4B1B6803F40053002B74
:1006D00002D03C4B01221A70384B1B6803F40043D4
:1006E000002B02D0374B00221A70354B1B78002BA1
:1006F0000CD0354B344A526942F480425A61324B35
:10070000314A526922F480525A610BE02E4B2E4A34
:10071000526942F480525A612B4B2B4A526922F49F
:1007200080425A61274B1B78002B0CD0264B264A5F
:10073000526942F400525A61234B234A526922F40F
:1007400000425A610BE0204B1F4A526942F40042BA
:100750005A611D4B1C4A526922F400525A614120D1
:10076000002100F0D1F80346002B1CD0144B1B785D
:10077000002B03D0582000F079F802E0782000F038
:1007800075F8104B1B78002B03D0592000F06EF841
:1007900002E0792000F06AF80C4800F07FF864204D
:1007A00000F090F8D9E6D8E6094B00229A810023A0
:1007B000FB6212E080090008140000200400002001
:1007C0000000002001000020000C02408C090008FD
:1007D00000140040FB6A0133FB62FB6AB3F1807FC7
:1007E000F8DBE4E780B400AF1C4B1C4A126C42F407
:1007F00080221A64194B194A126A42F480221A6242
:10080000174B184A5A62164A154B1B6843F02A5375
:1008100043F400131360114B104A126A22F4802231
:100820001A62114A104B1B889BB223F47F7323F08A
:1008300003039BB213800C4B41F212121A810A4A35
:10084000094B9B899BB243F4005343F00C039BB2CA
:100850009381BD465DF8047B704700BF00380240BD
:1008600000040240007777070048004080B483B05E
:1008700000AF0346FB7100BF074B1B889BB203F020
:100880008003002BF8D0044BFA7992B29A800C378F
:10089000BD465DF8047B70470048004080B582B0DB
:1008A00000AF786007E07B681B781846FFF7DEFF33
:1008B0007B6801337B607B681B78002BF3D10837A2
:1008C000BD4680BD80B485B000AF78600023FB607A
:1008D0000023BB600023FB600DE00023BB6002E04F
:1008E000BB680133BB60BA6842F2C3039A42F7DDCA
:1008F000FB680133FB60FA687B689A42EDDB1437D2
:10090000BD465DF8047B704780B485B000AF0246F9
:100910000B46FA71BB710023FB73FB79612B02D08C
:10092000FB79412B11D10C4B1A69BB79012101FADA
:1009300003F31A40BB79012101FA03F39A4202D171
:100940000123FB7301E00023FB73FB7B1846143784
:10095000BD465DF8047B70470000024080B582B060
:1009600000AF064B9B889BB2FB71FB799BB203489F
:100970001946FFF709FC0837BD4680BD001001404D
:100980007374617274200D0A000000000D0A0000EB
:0400000508000000EF
:00000001FF
